{"abi":[{"type":"constructor","inputs":[{"name":"_creator","type":"address","internalType":"address"},{"name":"_name","type":"string","internalType":"string"},{"name":"_symbol","type":"string","internalType":"string"},{"name":"_totalSupply","type":"uint256","internalType":"uint256"}],"stateMutability":"nonpayable"},{"type":"function","name":"allowance","inputs":[{"name":"owner","type":"address","internalType":"address"},{"name":"spender","type":"address","internalType":"address"}],"outputs":[{"name":"","type":"uint256","internalType":"uint256"}],"stateMutability":"view"},{"type":"function","name":"approve","inputs":[{"name":"spender","type":"address","internalType":"address"},{"name":"value","type":"uint256","internalType":"uint256"}],"outputs":[{"name":"","type":"bool","internalType":"bool"}],"stateMutability":"nonpayable"},{"type":"function","name":"balanceOf","inputs":[{"name":"account","type":"address","internalType":"address"}],"outputs":[{"name":"","type":"uint256","internalType":"uint256"}],"stateMutability":"view"},{"type":"function","name":"creator","inputs":[],"outputs":[{"name":"","type":"address","internalType":"address"}],"stateMutability":"view"},{"type":"function","name":"decimals","inputs":[],"outputs":[{"name":"","type":"uint8","internalType":"uint8"}],"stateMutability":"view"},{"type":"function","name":"name","inputs":[],"outputs":[{"name":"","type":"string","internalType":"string"}],"stateMutability":"view"},{"type":"function","name":"owner","inputs":[],"outputs":[{"name":"","type":"address","internalType":"address payable"}],"stateMutability":"view"},{"type":"function","name":"symbol","inputs":[],"outputs":[{"name":"","type":"string","internalType":"string"}],"stateMutability":"view"},{"type":"function","name":"totalSupply","inputs":[],"outputs":[{"name":"","type":"uint256","internalType":"uint256"}],"stateMutability":"view"},{"type":"function","name":"transfer","inputs":[{"name":"to","type":"address","internalType":"address"},{"name":"value","type":"uint256","internalType":"uint256"}],"outputs":[{"name":"","type":"bool","internalType":"bool"}],"stateMutability":"nonpayable"},{"type":"function","name":"transferFrom","inputs":[{"name":"from","type":"address","internalType":"address"},{"name":"to","type":"address","internalType":"address"},{"name":"value","type":"uint256","internalType":"uint256"}],"outputs":[{"name":"","type":"bool","internalType":"bool"}],"stateMutability":"nonpayable"},{"type":"event","name":"Approval","inputs":[{"name":"owner","type":"address","indexed":true,"internalType":"address"},{"name":"spender","type":"address","indexed":true,"internalType":"address"},{"name":"value","type":"uint256","indexed":false,"internalType":"uint256"}],"anonymous":false},{"type":"event","name":"Transfer","inputs":[{"name":"from","type":"address","indexed":true,"internalType":"address"},{"name":"to","type":"address","indexed":true,"internalType":"address"},{"name":"value","type":"uint256","indexed":false,"internalType":"uint256"}],"anonymous":false},{"type":"error","name":"ERC20InsufficientAllowance","inputs":[{"name":"spender","type":"address","internalType":"address"},{"name":"allowance","type":"uint256","internalType":"uint256"},{"name":"needed","type":"uint256","internalType":"uint256"}]},{"type":"error","name":"ERC20InsufficientBalance","inputs":[{"name":"sender","type":"address","internalType":"address"},{"name":"balance","type":"uint256","internalType":"uint256"},{"name":"needed","type":"uint256","internalType":"uint256"}]},{"type":"error","name":"ERC20InvalidApprover","inputs":[{"name":"approver","type":"address","internalType":"address"}]},{"type":"error","name":"ERC20InvalidReceiver","inputs":[{"name":"receiver","type":"address","internalType":"address"}]},{"type":"error","name":"ERC20InvalidSender","inputs":[{"name":"sender","type":"address","internalType":"address"}]},{"type":"error","name":"ERC20InvalidSpender","inputs":[{"name":"spender","type":"address","internalType":"address"}]}],"bytecode":{"object":"0x608060405234801561000f575f5ffd5b5060405161188138038061188183398181016040528101906100319190610566565b828281600390816100429190610809565b5080600490816100529190610809565b5050503360055f6101000a81548173ffffffffffffffffffffffffffffffffffffffff021916908373ffffffffffffffffffffffffffffffffffffffff1602179055508360065f6101000a81548173ffffffffffffffffffffffffffffffffffffffff021916908373ffffffffffffffffffffffffffffffffffffffff1602179055506100e533826100ee60201b60201c565b505050506109bd565b5f73ffffffffffffffffffffffffffffffffffffffff168273ffffffffffffffffffffffffffffffffffffffff160361015e575f6040517fec442f0500000000000000000000000000000000000000000000000000000000815260040161015591906108e7565b60405180910390fd5b61016f5f838361017360201b60201c565b5050565b5f73ffffffffffffffffffffffffffffffffffffffff168373ffffffffffffffffffffffffffffffffffffffff16036101c3578060025f8282546101b7919061092d565b92505081905550610291565b5f5f5f8573ffffffffffffffffffffffffffffffffffffffff1673ffffffffffffffffffffffffffffffffffffffff1681526020019081526020015f205490508181101561024c578381836040517fe450d38c0000000000000000000000000000000000000000000000000000000081526004016102439392919061096f565b60405180910390fd5b8181035f5f8673ffffffffffffffffffffffffffffffffffffffff1673ffffffffffffffffffffffffffffffffffffffff1681526020019081526020015f2081905550505b5f73ffffffffffffffffffffffffffffffffffffffff168273ffffffffffffffffffffffffffffffffffffffff16036102d8578060025f8282540392505081905550610322565b805f5f8473ffffffffffffffffffffffffffffffffffffffff1673ffffffffffffffffffffffffffffffffffffffff1681526020019081526020015f205f82825401925050819055505b8173ffffffffffffffffffffffffffffffffffffffff168373ffffffffffffffffffffffffffffffffffffffff167fddf252ad1be2c89b69c2b068fc378daa952ba7f163c4a11628f55a4df523b3ef8360405161037f91906109a4565b60405180910390a3505050565b5f604051905090565b5f5ffd5b5f5ffd5b5f73ffffffffffffffffffffffffffffffffffffffff82169050919050565b5f6103c68261039d565b9050919050565b6103d6816103bc565b81146103e0575f5ffd5b50565b5f815190506103f1816103cd565b92915050565b5f5ffd5b5f5ffd5b5f601f19601f8301169050919050565b7f4e487b71000000000000000000000000000000000000000000000000000000005f52604160045260245ffd5b610445826103ff565b810181811067ffffffffffffffff821117156104645761046361040f565b5b80604052505050565b5f61047661038c565b9050610482828261043c565b919050565b5f67ffffffffffffffff8211156104a1576104a061040f565b5b6104aa826103ff565b9050602081019050919050565b8281835e5f83830152505050565b5f6104d76104d284610487565b61046d565b9050828152602081018484840111156104f3576104f26103fb565b5b6104fe8482856104b7565b509392505050565b5f82601f83011261051a576105196103f7565b5b815161052a8482602086016104c5565b91505092915050565b5f819050919050565b61054581610533565b811461054f575f5ffd5b50565b5f815190506105608161053c565b92915050565b5f5f5f5f6080858703121561057e5761057d610395565b5b5f61058b878288016103e3565b945050602085015167ffffffffffffffff8111156105ac576105ab610399565b5b6105b887828801610506565b935050604085015167ffffffffffffffff8111156105d9576105d8610399565b5b6105e587828801610506565b92505060606105f687828801610552565b91505092959194509250565b5f81519050919050565b7f4e487b71000000000000000000000000000000000000000000000000000000005f52602260045260245ffd5b5f600282049050600182168061065057607f821691505b6020821081036106635761066261060c565b5b50919050565b5f819050815f5260205f209050919050565b5f6020601f8301049050919050565b5f82821b905092915050565b5f600883026106c57fffffffffffffffffffffffffffffffffffffffffffffffffffffffffffffffff8261068a565b6106cf868361068a565b95508019841693508086168417925050509392505050565b5f819050919050565b5f61070a61070561070084610533565b6106e7565b610533565b9050919050565b5f819050919050565b610723836106f0565b61073761072f82610711565b848454610696565b825550505050565b5f5f905090565b61074e61073f565b61075981848461071a565b505050565b5b8181101561077c576107715f82610746565b60018101905061075f565b5050565b601f8211156107c15761079281610669565b61079b8461067b565b810160208510156107aa578190505b6107be6107b68561067b565b83018261075e565b50505b505050565b5f82821c905092915050565b5f6107e15f19846008026107c6565b1980831691505092915050565b5f6107f983836107d2565b9150826002028217905092915050565b61081282610602565b67ffffffffffffffff81111561082b5761082a61040f565b5b6108358254610639565b610840828285610780565b5f60209050601f831160018114610871575f841561085f578287015190505b61086985826107ee565b8655506108d0565b601f19841661087f86610669565b5f5b828110156108a657848901518255600182019150602085019450602081019050610881565b868310156108c357848901516108bf601f8916826107d2565b8355505b6001600288020188555050505b505050505050565b6108e1816103bc565b82525050565b5f6020820190506108fa5f8301846108d8565b92915050565b7f4e487b71000000000000000000000000000000000000000000000000000000005f52601160045260245ffd5b5f61093782610533565b915061094283610533565b925082820190508082111561095a57610959610900565b5b92915050565b61096981610533565b82525050565b5f6060820190506109825f8301866108d8565b61098f6020830185610960565b61099c6040830184610960565b949350505050565b5f6020820190506109b75f830184610960565b92915050565b610eb7806109ca5f395ff3fe608060405234801561000f575f5ffd5b50600436106100a7575f3560e01c8063313ce5671161006f578063313ce5671461016557806370a08231146101835780638da5cb5b146101b357806395d89b41146101d1578063a9059cbb146101ef578063dd62ed3e1461021f576100a7565b806302d05d3f146100ab57806306fdde03146100c9578063095ea7b3146100e757806318160ddd1461011757806323b872dd14610135575b5f5ffd5b6100b361024f565b6040516100c09190610ac6565b60405180910390f35b6100d1610274565b6040516100de9190610b4f565b60405180910390f35b61010160048036038101906100fc9190610bd0565b610304565b60405161010e9190610c28565b60405180910390f35b61011f610326565b60405161012c9190610c50565b60405180910390f35b61014f600480360381019061014a9190610c69565b61032f565b60405161015c9190610c28565b60405180910390f35b61016d61035d565b60405161017a9190610cd4565b60405180910390f35b61019d60048036038101906101989190610ced565b610365565b6040516101aa9190610c50565b60405180910390f35b6101bb6103aa565b6040516101c89190610d38565b60405180910390f35b6101d96103cf565b6040516101e69190610b4f565b60405180910390f35b61020960048036038101906102049190610bd0565b61045f565b6040516102169190610c28565b60405180910390f35b61023960048036038101906102349190610d51565b610481565b6040516102469190610c50565b60405180910390f35b60065f9054906101000a900473ffffffffffffffffffffffffffffffffffffffff1681565b60606003805461028390610dbc565b80601f01602080910402602001604051908101604052809291908181526020018280546102af90610dbc565b80156102fa5780601f106102d1576101008083540402835291602001916102fa565b820191905f5260205f20905b8154815290600101906020018083116102dd57829003601f168201915b5050505050905090565b5f5f61030e610503565b905061031b81858561050a565b600191505092915050565b5f600254905090565b5f5f610339610503565b905061034685828561051c565b6103518585856105af565b60019150509392505050565b5f6012905090565b5f5f5f8373ffffffffffffffffffffffffffffffffffffffff1673ffffffffffffffffffffffffffffffffffffffff1681526020019081526020015f20549050919050565b60055f9054906101000a900473ffffffffffffffffffffffffffffffffffffffff1681565b6060600480546103de90610dbc565b80601f016020809104026020016040519081016040528092919081815260200182805461040a90610dbc565b80156104555780601f1061042c57610100808354040283529160200191610455565b820191905f5260205f20905b81548152906001019060200180831161043857829003601f168201915b5050505050905090565b5f5f610469610503565b90506104768185856105af565b600191505092915050565b5f60015f8473ffffffffffffffffffffffffffffffffffffffff1673ffffffffffffffffffffffffffffffffffffffff1681526020019081526020015f205f8373ffffffffffffffffffffffffffffffffffffffff1673ffffffffffffffffffffffffffffffffffffffff1681526020019081526020015f2054905092915050565b5f33905090565b610517838383600161069f565b505050565b5f6105278484610481565b90507fffffffffffffffffffffffffffffffffffffffffffffffffffffffffffffffff8110156105a9578181101561059a578281836040517ffb8f41b200000000000000000000000000000000000000000000000000000000815260040161059193929190610dec565b60405180910390fd5b6105a884848484035f61069f565b5b50505050565b5f73ffffffffffffffffffffffffffffffffffffffff168373ffffffffffffffffffffffffffffffffffffffff160361061f575f6040517f96c6fd1e0000000000000000000000000000000000000000000000000000000081526004016106169190610ac6565b60405180910390fd5b5f73ffffffffffffffffffffffffffffffffffffffff168273ffffffffffffffffffffffffffffffffffffffff160361068f575f6040517fec442f050000000000000000000000000000000000000000000000000000000081526004016106869190610ac6565b60405180910390fd5b61069a83838361086e565b505050565b5f73ffffffffffffffffffffffffffffffffffffffff168473ffffffffffffffffffffffffffffffffffffffff160361070f575f6040517fe602df050000000000000000000000000000000000000000000000000000000081526004016107069190610ac6565b60405180910390fd5b5f73ffffffffffffffffffffffffffffffffffffffff168373ffffffffffffffffffffffffffffffffffffffff160361077f575f6040517f94280d620000000000000000000000000000000000000000000000000000000081526004016107769190610ac6565b60405180910390fd5b8160015f8673ffffffffffffffffffffffffffffffffffffffff1673ffffffffffffffffffffffffffffffffffffffff1681526020019081526020015f205f8573ffffffffffffffffffffffffffffffffffffffff1673ffffffffffffffffffffffffffffffffffffffff1681526020019081526020015f20819055508015610868578273ffffffffffffffffffffffffffffffffffffffff168473ffffffffffffffffffffffffffffffffffffffff167f8c5be1e5ebec7d5bd14f71427d1e84f3dd0314c0f7b2291e5b200ac8c7c3b9258460405161085f9190610c50565b60405180910390a35b50505050565b5f73ffffffffffffffffffffffffffffffffffffffff168373ffffffffffffffffffffffffffffffffffffffff16036108be578060025f8282546108b29190610e4e565b9250508190555061098c565b5f5f5f8573ffffffffffffffffffffffffffffffffffffffff1673ffffffffffffffffffffffffffffffffffffffff1681526020019081526020015f2054905081811015610947578381836040517fe450d38c00000000000000000000000000000000000000000000000000000000815260040161093e93929190610dec565b60405180910390fd5b8181035f5f8673ffffffffffffffffffffffffffffffffffffffff1673ffffffffffffffffffffffffffffffffffffffff1681526020019081526020015f2081905550505b5f73ffffffffffffffffffffffffffffffffffffffff168273ffffffffffffffffffffffffffffffffffffffff16036109d3578060025f8282540392505081905550610a1d565b805f5f8473ffffffffffffffffffffffffffffffffffffffff1673ffffffffffffffffffffffffffffffffffffffff1681526020019081526020015f205f82825401925050819055505b8173ffffffffffffffffffffffffffffffffffffffff168373ffffffffffffffffffffffffffffffffffffffff167fddf252ad1be2c89b69c2b068fc378daa952ba7f163c4a11628f55a4df523b3ef83604051610a7a9190610c50565b60405180910390a3505050565b5f73ffffffffffffffffffffffffffffffffffffffff82169050919050565b5f610ab082610a87565b9050919050565b610ac081610aa6565b82525050565b5f602082019050610ad95f830184610ab7565b92915050565b5f81519050919050565b5f82825260208201905092915050565b8281835e5f83830152505050565b5f601f19601f8301169050919050565b5f610b2182610adf565b610b2b8185610ae9565b9350610b3b818560208601610af9565b610b4481610b07565b840191505092915050565b5f6020820190508181035f830152610b678184610b17565b905092915050565b5f5ffd5b610b7c81610aa6565b8114610b86575f5ffd5b50565b5f81359050610b9781610b73565b92915050565b5f819050919050565b610baf81610b9d565b8114610bb9575f5ffd5b50565b5f81359050610bca81610ba6565b92915050565b5f5f60408385031215610be657610be5610b6f565b5b5f610bf385828601610b89565b9250506020610c0485828601610bbc565b9150509250929050565b5f8115159050919050565b610c2281610c0e565b82525050565b5f602082019050610c3b5f830184610c19565b92915050565b610c4a81610b9d565b82525050565b5f602082019050610c635f830184610c41565b92915050565b5f5f5f60608486031215610c8057610c7f610b6f565b5b5f610c8d86828701610b89565b9350506020610c9e86828701610b89565b9250506040610caf86828701610bbc565b9150509250925092565b5f60ff82169050919050565b610cce81610cb9565b82525050565b5f602082019050610ce75f830184610cc5565b92915050565b5f60208284031215610d0257610d01610b6f565b5b5f610d0f84828501610b89565b91505092915050565b5f610d2282610a87565b9050919050565b610d3281610d18565b82525050565b5f602082019050610d4b5f830184610d29565b92915050565b5f5f60408385031215610d6757610d66610b6f565b5b5f610d7485828601610b89565b9250506020610d8585828601610b89565b9150509250929050565b7f4e487b71000000000000000000000000000000000000000000000000000000005f52602260045260245ffd5b5f6002820490506001821680610dd357607f821691505b602082108103610de657610de5610d8f565b5b50919050565b5f606082019050610dff5f830186610ab7565b610e0c6020830185610c41565b610e196040830184610c41565b949350505050565b7f4e487b71000000000000000000000000000000000000000000000000000000005f52601160045260245ffd5b5f610e5882610b9d565b9150610e6383610b9d565b9250828201905080821115610e7b57610e7a610e21565b5b9291505056fea264697066735822122000d63e1d4ca4f1541ae926e3bb70df0b28a4966c3556cc186fdc73c8c12a7c7c64736f6c634300081e0033","linkReferences":{}},"methodIdentifiers":{"allowance(address,address)":"dd62ed3e","approve(address,uint256)":"095ea7b3","balanceOf(address)":"70a08231","creator()":"02d05d3f","decimals()":"313ce567","name()":"06fdde03","owner()":"8da5cb5b","symbol()":"95d89b41","totalSupply()":"18160ddd","transfer(address,uint256)":"a9059cbb","transferFrom(address,address,uint256)":"23b872dd"},"id":22}