{"abi":[{"type":"constructor","inputs":[{"name":"_fee","type":"uint256","internalType":"uint256"}],"stateMutability":"nonpayable"},{"type":"function","name":"TARGET","inputs":[],"outputs":[{"name":"","type":"uint256","internalType":"uint256"}],"stateMutability":"view"},{"type":"function","name":"TOKEN_LIMIT","inputs":[],"outputs":[{"name":"","type":"uint256","internalType":"uint256"}],"stateMutability":"view"},{"type":"function","name":"buy","inputs":[{"name":"_token","type":"address","internalType":"address"},{"name":"_amount","type":"uint256","internalType":"uint256"}],"outputs":[],"stateMutability":"payable"},{"type":"function","name":"create","inputs":[{"name":"_name","type":"string","internalType":"string"},{"name":"_symbol","type":"string","internalType":"string"}],"outputs":[],"stateMutability":"payable"},{"type":"function","name":"deposit","inputs":[{"name":"_token","type":"address","internalType":"address"}],"outputs":[],"stateMutability":"nonpayable"},{"type":"function","name":"fee","inputs":[],"outputs":[{"name":"","type":"uint256","internalType":"uint256"}],"stateMutability":"view"},{"type":"function","name":"getCost","inputs":[{"name":"_sold","type":"uint256","internalType":"uint256"}],"outputs":[{"name":"","type":"uint256","internalType":"uint256"}],"stateMutability":"pure"},{"type":"function","name":"getTokenSale","inputs":[{"name":"_index","type":"uint256","internalType":"uint256"}],"outputs":[{"name":"","type":"tuple","internalType":"struct Factory.TokenSale","components":[{"name":"name","type":"string","internalType":"string"},{"name":"token","type":"address","internalType":"address"},{"name":"creator","type":"address","internalType":"address"},{"name":"sold","type":"uint256","internalType":"uint256"},{"name":"raised","type":"uint256","internalType":"uint256"},{"name":"isOpen","type":"bool","internalType":"bool"}]}],"stateMutability":"view"},{"type":"function","name":"owner","inputs":[],"outputs":[{"name":"","type":"address","internalType":"address"}],"stateMutability":"view"},{"type":"function","name":"tokenToSale","inputs":[{"name":"","type":"address","internalType":"address"}],"outputs":[{"name":"name","type":"string","internalType":"string"},{"name":"token","type":"address","internalType":"address"},{"name":"creator","type":"address","internalType":"address"},{"name":"sold","type":"uint256","internalType":"uint256"},{"name":"raised","type":"uint256","internalType":"uint256"},{"name":"isOpen","type":"bool","internalType":"bool"}],"stateMutability":"view"},{"type":"function","name":"tokens","inputs":[{"name":"","type":"uint256","internalType":"uint256"}],"outputs":[{"name":"","type":"address","internalType":"address"}],"stateMutability":"view"},{"type":"function","name":"totalTokens","inputs":[],"outputs":[{"name":"","type":"uint256","internalType":"uint256"}],"stateMutability":"view"},{"type":"function","name":"withdraw","inputs":[{"name":"_amount","type":"uint256","internalType":"uint256"}],"outputs":[],"stateMutability":"nonpayable"},{"type":"event","name":"Buy","inputs":[{"name":"token","type":"address","indexed":true,"internalType":"address"},{"name":"amount","type":"uint256","indexed":false,"internalType":"uint256"}],"anonymous":false},{"type":"event","name":"Created","inputs":[{"name":"token","type":"address","indexed":true,"internalType":"address"}],"anonymous":false}],"bytecode":{"object":"0x60a060405234801561000f575f5ffd5b50604051613a59380380613a59833981810160405281019061003191906100b5565b8060808181525050335f5f6101000a81548173ffffffffffffffffffffffffffffffffffffffff021916908373ffffffffffffffffffffffffffffffffffffffff160217905550506100e0565b5f5ffd5b5f819050919050565b61009481610082565b811461009e575f5ffd5b50565b5f815190506100af8161008b565b92915050565b5f602082840312156100ca576100c961007e565b5b5f6100d7848285016100a1565b91505092915050565b60805161395a6100ff5f395f81816103240152610e0f015261395a5ff3fe6080604052600436106100c1575f3560e01c80637e1c0c091161007e578063cc1f2afa11610058578063cc1f2afa1461027c578063cce7ec13146102a6578063ddca3f43146102c2578063f340fa01146102ec576100c1565b80637e1c0c09146101e75780638da5cb5b146102115780639c0ad5ed1461023b576100c1565b8063031bd4c4146100c5578063198e2b8a146100ef5780631fbc147b1461010b5780632e1a7d4d146101475780634f64b2be1461016f5780635a4dd47d146101ab575b5f5ffd5b3480156100d0575f5ffd5b506100d9610314565b6040516100e69190611262565b60405180910390f35b610109600480360381019061010491906113c8565b610322565b005b348015610116575f5ffd5b50610131600480360381019061012c9190611468565b6105fc565b60405161013e91906115e1565b60405180910390f35b348015610152575f5ffd5b5061016d60048036038101906101689190611468565b6107f5565b005b34801561017a575f5ffd5b5061019560048036038101906101909190611468565b61094f565b6040516101a29190611610565b60405180910390f35b3480156101b6575f5ffd5b506101d160048036038101906101cc9190611468565b61098a565b6040516101de9190611262565b60405180910390f35b3480156101f2575f5ffd5b506101fb6109de565b6040516102089190611262565b60405180910390f35b34801561021c575f5ffd5b506102256109e4565b6040516102329190611610565b60405180910390f35b348015610246575f5ffd5b50610261600480360381019061025c9190611653565b610a08565b604051610273969594939291906116d5565b60405180910390f35b348015610287575f5ffd5b50610290610b10565b60405161029d9190611262565b60405180910390f35b6102c060048036038101906102bb919061173b565b610b1c565b005b3480156102cd575f5ffd5b506102d6610e0d565b6040516102e39190611262565b60405180910390f35b3480156102f7575f5ffd5b50610312600480360381019061030d9190611653565b610e31565b005b6969e10de76676d080000081565b7f0000000000000000000000000000000000000000000000000000000000000000341015610385576040517f08c379a000000000000000000000000000000000000000000000000000000000815260040161037c906117c3565b60405180910390fd5b5f33838369d3c21bcecceda10000006040516103a0906111de565b6103ad9493929190611823565b604051809103905ff0801580156103c6573d5f5f3e3d5ffd5b509050600181908060018154018082558091505060019003905f5260205f20015f9091909190916101000a81548173ffffffffffffffffffffffffffffffffffffffff021916908373ffffffffffffffffffffffffffffffffffffffff16021790555060025f81548092919061043b906118a1565b91905055505f6040518060c001604052808581526020018373ffffffffffffffffffffffffffffffffffffffff1681526020013373ffffffffffffffffffffffffffffffffffffffff1681526020015f81526020015f81526020016001151581525090508060035f8473ffffffffffffffffffffffffffffffffffffffff1673ffffffffffffffffffffffffffffffffffffffff1681526020019081526020015f205f820151815f0190816104f09190611adc565b506020820151816001015f6101000a81548173ffffffffffffffffffffffffffffffffffffffff021916908373ffffffffffffffffffffffffffffffffffffffff1602179055506040820151816002015f6101000a81548173ffffffffffffffffffffffffffffffffffffffff021916908373ffffffffffffffffffffffffffffffffffffffff160217905550606082015181600301556080820151816004015560a0820151816005015f6101000a81548160ff0219169083151502179055509050508173ffffffffffffffffffffffffffffffffffffffff167f1449abf21e49fd025f33495e77f7b1461caefdd3d4bb646424a3f445c4576a5b60405160405180910390a250505050565b6106046111eb565b60035f6001848154811061061b5761061a611bab565b5b905f5260205f20015f9054906101000a900473ffffffffffffffffffffffffffffffffffffffff1673ffffffffffffffffffffffffffffffffffffffff1673ffffffffffffffffffffffffffffffffffffffff1681526020019081526020015f206040518060c00160405290815f8201805461069690611915565b80601f01602080910402602001604051908101604052809291908181526020018280546106c290611915565b801561070d5780601f106106e45761010080835404028352916020019161070d565b820191905f5260205f20905b8154815290600101906020018083116106f057829003601f168201915b50505050508152602001600182015f9054906101000a900473ffffffffffffffffffffffffffffffffffffffff1673ffffffffffffffffffffffffffffffffffffffff1673ffffffffffffffffffffffffffffffffffffffff168152602001600282015f9054906101000a900473ffffffffffffffffffffffffffffffffffffffff1673ffffffffffffffffffffffffffffffffffffffff1673ffffffffffffffffffffffffffffffffffffffff1681526020016003820154815260200160048201548152602001600582015f9054906101000a900460ff1615151515815250509050919050565b5f5f9054906101000a900473ffffffffffffffffffffffffffffffffffffffff1673ffffffffffffffffffffffffffffffffffffffff163373ffffffffffffffffffffffffffffffffffffffff1614610883576040517f08c379a000000000000000000000000000000000000000000000000000000000815260040161087a90611c22565b60405180910390fd5b5f5f5f9054906101000a900473ffffffffffffffffffffffffffffffffffffffff1673ffffffffffffffffffffffffffffffffffffffff16826040516108c890611c6d565b5f6040518083038185875af1925050503d805f8114610902576040519150601f19603f3d011682016040523d82523d5f602084013e610907565b606091505b505090508061094b576040517f08c379a000000000000000000000000000000000000000000000000000000000815260040161094290611ccb565b60405180910390fd5b5050565b6001818154811061095e575f80fd5b905f5260205f20015f915054906101000a900473ffffffffffffffffffffffffffffffffffffffff1681565b5f5f655af3107a400090505f655af3107a400090505f69021e19e0c9bab240000090505f81866109ba9190611d16565b836109c59190611d46565b846109d09190611d87565b905080945050505050919050565b60025481565b5f5f9054906101000a900473ffffffffffffffffffffffffffffffffffffffff1681565b6003602052805f5260405f205f91509050805f018054610a2790611915565b80601f0160208091040260200160405190810160405280929190818152602001828054610a5390611915565b8015610a9e5780601f10610a7557610100808354040283529160200191610a9e565b820191905f5260205f20905b815481529060010190602001808311610a8157829003601f168201915b505050505090806001015f9054906101000a900473ffffffffffffffffffffffffffffffffffffffff1690806002015f9054906101000a900473ffffffffffffffffffffffffffffffffffffffff1690806003015490806004015490806005015f9054906101000a900460ff16905086565b6729a2241af62c000081565b5f60035f8473ffffffffffffffffffffffffffffffffffffffff1673ffffffffffffffffffffffffffffffffffffffff1681526020019081526020015f20905060011515816005015f9054906101000a900460ff16151514610bb3576040517f08c379a0000000000000000000000000000000000000000000000000000000008152600401610baa90611e04565b60405180910390fd5b670de0b6b3a7640000821015610bfe576040517f08c379a0000000000000000000000000000000000000000000000000000000008152600401610bf590611e6c565b60405180910390fd5b69021e19e0c9bab2400000821115610c4b576040517f08c379a0000000000000000000000000000000000000000000000000000000008152600401610c4290611ed4565b60405180910390fd5b5f610c59826003015461098a565b90505f670de0b6b3a764000084610c709190611d16565b82610c7b9190611d46565b905080341015610cc0576040517f08c379a0000000000000000000000000000000000000000000000000000000008152600401610cb790611f62565b60405180910390fd5b838360030154610cd09190611d87565b836003018190555080836004015f828254610ceb9190611d87565b925050819055506969e10de76676d08000008360030154101580610d1b57506729a2241af62c0000836004015410155b15610d3c575f836005015f6101000a81548160ff0219169083151502179055505b8473ffffffffffffffffffffffffffffffffffffffff1663a9059cbb33866040518363ffffffff1660e01b8152600401610d77929190611f80565b6020604051808303815f875af1158015610d93573d5f5f3e3d5ffd5b505050506040513d601f19601f82011682018060405250810190610db79190611fd1565b508473ffffffffffffffffffffffffffffffffffffffff167fe3d4187f6ca4248660cc0ac8b8056515bac4a8132be2eca31d6d0cc170722a7e85604051610dfe9190611262565b60405180910390a25050505050565b7f000000000000000000000000000000000000000000000000000000000000000081565b5f8190505f60035f8473ffffffffffffffffffffffffffffffffffffffff1673ffffffffffffffffffffffffffffffffffffffff1681526020019081526020015f206040518060c00160405290815f82018054610e8d90611915565b80601f0160208091040260200160405190810160405280929190818152602001828054610eb990611915565b8015610f045780601f10610edb57610100808354040283529160200191610f04565b820191905f5260205f20905b815481529060010190602001808311610ee757829003601f168201915b50505050508152602001600182015f9054906101000a900473ffffffffffffffffffffffffffffffffffffffff1673ffffffffffffffffffffffffffffffffffffffff1673ffffffffffffffffffffffffffffffffffffffff168152602001600282015f9054906101000a900473ffffffffffffffffffffffffffffffffffffffff1673ffffffffffffffffffffffffffffffffffffffff1673ffffffffffffffffffffffffffffffffffffffff1681526020016003820154815260200160048201548152602001600582015f9054906101000a900460ff16151515158152505090505f15158160a00151151514611031576040517f08c379a000000000000000000000000000000000000000000000000000000000815260040161102890612046565b60405180910390fd5b8173ffffffffffffffffffffffffffffffffffffffff1663a9059cbb82604001518473ffffffffffffffffffffffffffffffffffffffff166370a08231306040518263ffffffff1660e01b815260040161108b9190611610565b602060405180830381865afa1580156110a6573d5f5f3e3d5ffd5b505050506040513d601f19601f820116820180604052508101906110ca9190612078565b6040518363ffffffff1660e01b81526004016110e7929190611f80565b6020604051808303815f875af1158015611103573d5f5f3e3d5ffd5b505050506040513d601f19601f820116820180604052508101906111279190611fd1565b505f816040015173ffffffffffffffffffffffffffffffffffffffff16826080015160405161115590611c6d565b5f6040518083038185875af1925050503d805f811461118f576040519150601f19603f3d011682016040523d82523d5f602084013e611194565b606091505b50509050806111d8576040517f08c379a00000000000000000000000000000000000000000000000000000000081526004016111cf90611ccb565b60405180910390fd5b50505050565b611881806120a483390190565b6040518060c00160405280606081526020015f73ffffffffffffffffffffffffffffffffffffffff1681526020015f73ffffffffffffffffffffffffffffffffffffffff1681526020015f81526020015f81526020015f151581525090565b5f819050919050565b61125c8161124a565b82525050565b5f6020820190506112755f830184611253565b92915050565b5f604051905090565b5f5ffd5b5f5ffd5b5f5ffd5b5f5ffd5b5f601f19601f8301169050919050565b7f4e487b71000000000000000000000000000000000000000000000000000000005f52604160045260245ffd5b6112da82611294565b810181811067ffffffffffffffff821117156112f9576112f86112a4565b5b80604052505050565b5f61130b61127b565b905061131782826112d1565b919050565b5f67ffffffffffffffff821115611336576113356112a4565b5b61133f82611294565b9050602081019050919050565b828183375f83830152505050565b5f61136c6113678461131c565b611302565b90508281526020810184848401111561138857611387611290565b5b61139384828561134c565b509392505050565b5f82601f8301126113af576113ae61128c565b5b81356113bf84826020860161135a565b91505092915050565b5f5f604083850312156113de576113dd611284565b5b5f83013567ffffffffffffffff8111156113fb576113fa611288565b5b6114078582860161139b565b925050602083013567ffffffffffffffff81111561142857611427611288565b5b6114348582860161139b565b9150509250929050565b6114478161124a565b8114611451575f5ffd5b50565b5f813590506114628161143e565b92915050565b5f6020828403121561147d5761147c611284565b5b5f61148a84828501611454565b91505092915050565b5f81519050919050565b5f82825260208201905092915050565b8281835e5f83830152505050565b5f6114c582611493565b6114cf818561149d565b93506114df8185602086016114ad565b6114e881611294565b840191505092915050565b5f73ffffffffffffffffffffffffffffffffffffffff82169050919050565b5f61151c826114f3565b9050919050565b61152c81611512565b82525050565b61153b8161124a565b82525050565b5f8115159050919050565b61155581611541565b82525050565b5f60c083015f8301518482035f86015261157582826114bb565b915050602083015161158a6020860182611523565b50604083015161159d6040860182611523565b5060608301516115b06060860182611532565b5060808301516115c36080860182611532565b5060a08301516115d660a086018261154c565b508091505092915050565b5f6020820190508181035f8301526115f9818461155b565b905092915050565b61160a81611512565b82525050565b5f6020820190506116235f830184611601565b92915050565b61163281611512565b811461163c575f5ffd5b50565b5f8135905061164d81611629565b92915050565b5f6020828403121561166857611667611284565b5b5f6116758482850161163f565b91505092915050565b5f82825260208201905092915050565b5f61169882611493565b6116a2818561167e565b93506116b28185602086016114ad565b6116bb81611294565b840191505092915050565b6116cf81611541565b82525050565b5f60c0820190508181035f8301526116ed818961168e565b90506116fc6020830188611601565b6117096040830187611601565b6117166060830186611253565b6117236080830185611253565b61173060a08301846116c6565b979650505050505050565b5f5f6040838503121561175157611750611284565b5b5f61175e8582860161163f565b925050602061176f85828601611454565b9150509250929050565b7f666163746f72793a2043726561746f7220666565206e6f74206d6574000000005f82015250565b5f6117ad601c8361167e565b91506117b882611779565b602082019050919050565b5f6020820190508181035f8301526117da816117a1565b9050919050565b5f819050919050565b5f819050919050565b5f61180d611808611803846117e1565b6117ea565b61124a565b9050919050565b61181d816117f3565b82525050565b5f6080820190506118365f830187611601565b8181036020830152611848818661168e565b9050818103604083015261185c818561168e565b905061186b6060830184611814565b95945050505050565b7f4e487b71000000000000000000000000000000000000000000000000000000005f52601160045260245ffd5b5f6118ab8261124a565b91507fffffffffffffffffffffffffffffffffffffffffffffffffffffffffffffffff82036118dd576118dc611874565b5b600182019050919050565b7f4e487b71000000000000000000000000000000000000000000000000000000005f52602260045260245ffd5b5f600282049050600182168061192c57607f821691505b60208210810361193f5761193e6118e8565b5b50919050565b5f819050815f5260205f209050919050565b5f6020601f8301049050919050565b5f82821b905092915050565b5f600883026119a17fffffffffffffffffffffffffffffffffffffffffffffffffffffffffffffffff82611966565b6119ab8683611966565b95508019841693508086168417925050509392505050565b5f6119dd6119d86119d38461124a565b6117ea565b61124a565b9050919050565b5f819050919050565b6119f6836119c3565b611a0a611a02826119e4565b848454611972565b825550505050565b5f5f905090565b611a21611a12565b611a2c8184846119ed565b505050565b5b81811015611a4f57611a445f82611a19565b600181019050611a32565b5050565b601f821115611a9457611a6581611945565b611a6e84611957565b81016020851015611a7d578190505b611a91611a8985611957565b830182611a31565b50505b505050565b5f82821c905092915050565b5f611ab45f1984600802611a99565b1980831691505092915050565b5f611acc8383611aa5565b9150826002028217905092915050565b611ae582611493565b67ffffffffffffffff811115611afe57611afd6112a4565b5b611b088254611915565b611b13828285611a53565b5f60209050601f831160018114611b44575f8415611b32578287015190505b611b3c8582611ac1565b865550611ba3565b601f198416611b5286611945565b5f5b82811015611b7957848901518255600182019150602085019450602081019050611b54565b86831015611b965784890151611b92601f891682611aa5565b8355505b6001600288020188555050505b505050505050565b7f4e487b71000000000000000000000000000000000000000000000000000000005f52603260045260245ffd5b7f466163746f7279203a206e6f74206f776e6572000000000000000000000000005f82015250565b5f611c0c60138361167e565b9150611c1782611bd8565b602082019050919050565b5f6020820190508181035f830152611c3981611c00565b9050919050565b5f81905092915050565b50565b5f611c585f83611c40565b9150611c6382611c4a565b5f82019050919050565b5f611c7782611c4d565b9150819050919050565b7f666163746f7279203a20657468207472616e73666572206661696c65640000005f82015250565b5f611cb5601d8361167e565b9150611cc082611c81565b602082019050919050565b5f6020820190508181035f830152611ce281611ca9565b9050919050565b7f4e487b71000000000000000000000000000000000000000000000000000000005f52601260045260245ffd5b5f611d208261124a565b9150611d2b8361124a565b925082611d3b57611d3a611ce9565b5b828204905092915050565b5f611d508261124a565b9150611d5b8361124a565b9250828202611d698161124a565b91508282048414831517611d8057611d7f611874565b5b5092915050565b5f611d918261124a565b9150611d9c8361124a565b9250828201905080821115611db457611db3611874565b5b92915050565b7f466163746f7279203a20627579696e6720697320636c6f7365640000000000005f82015250565b5f611dee601a8361167e565b9150611df982611dba565b602082019050919050565b5f6020820190508181035f830152611e1b81611de2565b9050919050565b7f466163746f7279203a20416d6f756e7420746f6f206c6f7700000000000000005f82015250565b5f611e5660188361167e565b9150611e6182611e22565b602082019050919050565b5f6020820190508181035f830152611e8381611e4a565b9050919050565b7f466163746f7279203a20616d6f756e74206578636565640000000000000000005f82015250565b5f611ebe60178361167e565b9150611ec982611e8a565b602082019050919050565b5f6020820190508181035f830152611eeb81611eb2565b9050919050565b7f466163746f7279203a20496e73756666696369656e7420616d6f756e74206f665f8201527f2065746800000000000000000000000000000000000000000000000000000000602082015250565b5f611f4c60248361167e565b9150611f5782611ef2565b604082019050919050565b5f6020820190508181035f830152611f7981611f40565b9050919050565b5f604082019050611f935f830185611601565b611fa06020830184611253565b9392505050565b611fb081611541565b8114611fba575f5ffd5b50565b5f81519050611fcb81611fa7565b92915050565b5f60208284031215611fe657611fe5611284565b5b5f611ff384828501611fbd565b91505092915050565b7f466163746f7279203a20546172676574206e6f742072656163686564000000005f82015250565b5f612030601c8361167e565b915061203b82611ffc565b602082019050919050565b5f6020820190508181035f83015261205d81612024565b9050919050565b5f815190506120728161143e565b92915050565b5f6020828403121561208d5761208c611284565b5b5f61209a84828501612064565b9150509291505056fe608060405234801561000f575f5ffd5b5060405161188138038061188183398181016040528101906100319190610566565b828281600390816100429190610809565b5080600490816100529190610809565b5050503360055f6101000a81548173ffffffffffffffffffffffffffffffffffffffff021916908373ffffffffffffffffffffffffffffffffffffffff1602179055508360065f6101000a81548173ffffffffffffffffffffffffffffffffffffffff021916908373ffffffffffffffffffffffffffffffffffffffff1602179055506100e533826100ee60201b60201c565b505050506109bd565b5f73ffffffffffffffffffffffffffffffffffffffff168273ffffffffffffffffffffffffffffffffffffffff160361015e575f6040517fec442f0500000000000000000000000000000000000000000000000000000000815260040161015591906108e7565b60405180910390fd5b61016f5f838361017360201b60201c565b5050565b5f73ffffffffffffffffffffffffffffffffffffffff168373ffffffffffffffffffffffffffffffffffffffff16036101c3578060025f8282546101b7919061092d565b92505081905550610291565b5f5f5f8573ffffffffffffffffffffffffffffffffffffffff1673ffffffffffffffffffffffffffffffffffffffff1681526020019081526020015f205490508181101561024c578381836040517fe450d38c0000000000000000000000000000000000000000000000000000000081526004016102439392919061096f565b60405180910390fd5b8181035f5f8673ffffffffffffffffffffffffffffffffffffffff1673ffffffffffffffffffffffffffffffffffffffff1681526020019081526020015f2081905550505b5f73ffffffffffffffffffffffffffffffffffffffff168273ffffffffffffffffffffffffffffffffffffffff16036102d8578060025f8282540392505081905550610322565b805f5f8473ffffffffffffffffffffffffffffffffffffffff1673ffffffffffffffffffffffffffffffffffffffff1681526020019081526020015f205f82825401925050819055505b8173ffffffffffffffffffffffffffffffffffffffff168373ffffffffffffffffffffffffffffffffffffffff167fddf252ad1be2c89b69c2b068fc378daa952ba7f163c4a11628f55a4df523b3ef8360405161037f91906109a4565b60405180910390a3505050565b5f604051905090565b5f5ffd5b5f5ffd5b5f73ffffffffffffffffffffffffffffffffffffffff82169050919050565b5f6103c68261039d565b9050919050565b6103d6816103bc565b81146103e0575f5ffd5b50565b5f815190506103f1816103cd565b92915050565b5f5ffd5b5f5ffd5b5f601f19601f8301169050919050565b7f4e487b71000000000000000000000000000000000000000000000000000000005f52604160045260245ffd5b610445826103ff565b810181811067ffffffffffffffff821117156104645761046361040f565b5b80604052505050565b5f61047661038c565b9050610482828261043c565b919050565b5f67ffffffffffffffff8211156104a1576104a061040f565b5b6104aa826103ff565b9050602081019050919050565b8281835e5f83830152505050565b5f6104d76104d284610487565b61046d565b9050828152602081018484840111156104f3576104f26103fb565b5b6104fe8482856104b7565b509392505050565b5f82601f83011261051a576105196103f7565b5b815161052a8482602086016104c5565b91505092915050565b5f819050919050565b61054581610533565b811461054f575f5ffd5b50565b5f815190506105608161053c565b92915050565b5f5f5f5f6080858703121561057e5761057d610395565b5b5f61058b878288016103e3565b945050602085015167ffffffffffffffff8111156105ac576105ab610399565b5b6105b887828801610506565b935050604085015167ffffffffffffffff8111156105d9576105d8610399565b5b6105e587828801610506565b92505060606105f687828801610552565b91505092959194509250565b5f81519050919050565b7f4e487b71000000000000000000000000000000000000000000000000000000005f52602260045260245ffd5b5f600282049050600182168061065057607f821691505b6020821081036106635761066261060c565b5b50919050565b5f819050815f5260205f209050919050565b5f6020601f8301049050919050565b5f82821b905092915050565b5f600883026106c57fffffffffffffffffffffffffffffffffffffffffffffffffffffffffffffffff8261068a565b6106cf868361068a565b95508019841693508086168417925050509392505050565b5f819050919050565b5f61070a61070561070084610533565b6106e7565b610533565b9050919050565b5f819050919050565b610723836106f0565b61073761072f82610711565b848454610696565b825550505050565b5f5f905090565b61074e61073f565b61075981848461071a565b505050565b5b8181101561077c576107715f82610746565b60018101905061075f565b5050565b601f8211156107c15761079281610669565b61079b8461067b565b810160208510156107aa578190505b6107be6107b68561067b565b83018261075e565b50505b505050565b5f82821c905092915050565b5f6107e15f19846008026107c6565b1980831691505092915050565b5f6107f983836107d2565b9150826002028217905092915050565b61081282610602565b67ffffffffffffffff81111561082b5761082a61040f565b5b6108358254610639565b610840828285610780565b5f60209050601f831160018114610871575f841561085f578287015190505b61086985826107ee565b8655506108d0565b601f19841661087f86610669565b5f5b828110156108a657848901518255600182019150602085019450602081019050610881565b868310156108c357848901516108bf601f8916826107d2565b8355505b6001600288020188555050505b505050505050565b6108e1816103bc565b82525050565b5f6020820190506108fa5f8301846108d8565b92915050565b7f4e487b71000000000000000000000000000000000000000000000000000000005f52601160045260245ffd5b5f61093782610533565b915061094283610533565b925082820190508082111561095a57610959610900565b5b92915050565b61096981610533565b82525050565b5f6060820190506109825f8301866108d8565b61098f6020830185610960565b61099c6040830184610960565b949350505050565b5f6020820190506109b75f830184610960565b92915050565b610eb7806109ca5f395ff3fe608060405234801561000f575f5ffd5b50600436106100a7575f3560e01c8063313ce5671161006f578063313ce5671461016557806370a08231146101835780638da5cb5b146101b357806395d89b41146101d1578063a9059cbb146101ef578063dd62ed3e1461021f576100a7565b806302d05d3f146100ab57806306fdde03146100c9578063095ea7b3146100e757806318160ddd1461011757806323b872dd14610135575b5f5ffd5b6100b361024f565b6040516100c09190610ac6565b60405180910390f35b6100d1610274565b6040516100de9190610b4f565b60405180910390f35b61010160048036038101906100fc9190610bd0565b610304565b60405161010e9190610c28565b60405180910390f35b61011f610326565b60405161012c9190610c50565b60405180910390f35b61014f600480360381019061014a9190610c69565b61032f565b60405161015c9190610c28565b60405180910390f35b61016d61035d565b60405161017a9190610cd4565b60405180910390f35b61019d60048036038101906101989190610ced565b610365565b6040516101aa9190610c50565b60405180910390f35b6101bb6103aa565b6040516101c89190610d38565b60405180910390f35b6101d96103cf565b6040516101e69190610b4f565b60405180910390f35b61020960048036038101906102049190610bd0565b61045f565b6040516102169190610c28565b60405180910390f35b61023960048036038101906102349190610d51565b610481565b6040516102469190610c50565b60405180910390f35b60065f9054906101000a900473ffffffffffffffffffffffffffffffffffffffff1681565b60606003805461028390610dbc565b80601f01602080910402602001604051908101604052809291908181526020018280546102af90610dbc565b80156102fa5780601f106102d1576101008083540402835291602001916102fa565b820191905f5260205f20905b8154815290600101906020018083116102dd57829003601f168201915b5050505050905090565b5f5f61030e610503565b905061031b81858561050a565b600191505092915050565b5f600254905090565b5f5f610339610503565b905061034685828561051c565b6103518585856105af565b60019150509392505050565b5f6012905090565b5f5f5f8373ffffffffffffffffffffffffffffffffffffffff1673ffffffffffffffffffffffffffffffffffffffff1681526020019081526020015f20549050919050565b60055f9054906101000a900473ffffffffffffffffffffffffffffffffffffffff1681565b6060600480546103de90610dbc565b80601f016020809104026020016040519081016040528092919081815260200182805461040a90610dbc565b80156104555780601f1061042c57610100808354040283529160200191610455565b820191905f5260205f20905b81548152906001019060200180831161043857829003601f168201915b5050505050905090565b5f5f610469610503565b90506104768185856105af565b600191505092915050565b5f60015f8473ffffffffffffffffffffffffffffffffffffffff1673ffffffffffffffffffffffffffffffffffffffff1681526020019081526020015f205f8373ffffffffffffffffffffffffffffffffffffffff1673ffffffffffffffffffffffffffffffffffffffff1681526020019081526020015f2054905092915050565b5f33905090565b610517838383600161069f565b505050565b5f6105278484610481565b90507fffffffffffffffffffffffffffffffffffffffffffffffffffffffffffffffff8110156105a9578181101561059a578281836040517ffb8f41b200000000000000000000000000000000000000000000000000000000815260040161059193929190610dec565b60405180910390fd5b6105a884848484035f61069f565b5b50505050565b5f73ffffffffffffffffffffffffffffffffffffffff168373ffffffffffffffffffffffffffffffffffffffff160361061f575f6040517f96c6fd1e0000000000000000000000000000000000000000000000000000000081526004016106169190610ac6565b60405180910390fd5b5f73ffffffffffffffffffffffffffffffffffffffff168273ffffffffffffffffffffffffffffffffffffffff160361068f575f6040517fec442f050000000000000000000000000000000000000000000000000000000081526004016106869190610ac6565b60405180910390fd5b61069a83838361086e565b505050565b5f73ffffffffffffffffffffffffffffffffffffffff168473ffffffffffffffffffffffffffffffffffffffff160361070f575f6040517fe602df050000000000000000000000000000000000000000000000000000000081526004016107069190610ac6565b60405180910390fd5b5f73ffffffffffffffffffffffffffffffffffffffff168373ffffffffffffffffffffffffffffffffffffffff160361077f575f6040517f94280d620000000000000000000000000000000000000000000000000000000081526004016107769190610ac6565b60405180910390fd5b8160015f8673ffffffffffffffffffffffffffffffffffffffff1673ffffffffffffffffffffffffffffffffffffffff1681526020019081526020015f205f8573ffffffffffffffffffffffffffffffffffffffff1673ffffffffffffffffffffffffffffffffffffffff1681526020019081526020015f20819055508015610868578273ffffffffffffffffffffffffffffffffffffffff168473ffffffffffffffffffffffffffffffffffffffff167f8c5be1e5ebec7d5bd14f71427d1e84f3dd0314c0f7b2291e5b200ac8c7c3b9258460405161085f9190610c50565b60405180910390a35b50505050565b5f73ffffffffffffffffffffffffffffffffffffffff168373ffffffffffffffffffffffffffffffffffffffff16036108be578060025f8282546108b29190610e4e565b9250508190555061098c565b5f5f5f8573ffffffffffffffffffffffffffffffffffffffff1673ffffffffffffffffffffffffffffffffffffffff1681526020019081526020015f2054905081811015610947578381836040517fe450d38c00000000000000000000000000000000000000000000000000000000815260040161093e93929190610dec565b60405180910390fd5b8181035f5f8673ffffffffffffffffffffffffffffffffffffffff1673ffffffffffffffffffffffffffffffffffffffff1681526020019081526020015f2081905550505b5f73ffffffffffffffffffffffffffffffffffffffff168273ffffffffffffffffffffffffffffffffffffffff16036109d3578060025f8282540392505081905550610a1d565b805f5f8473ffffffffffffffffffffffffffffffffffffffff1673ffffffffffffffffffffffffffffffffffffffff1681526020019081526020015f205f82825401925050819055505b8173ffffffffffffffffffffffffffffffffffffffff168373ffffffffffffffffffffffffffffffffffffffff167fddf252ad1be2c89b69c2b068fc378daa952ba7f163c4a11628f55a4df523b3ef83604051610a7a9190610c50565b60405180910390a3505050565b5f73ffffffffffffffffffffffffffffffffffffffff82169050919050565b5f610ab082610a87565b9050919050565b610ac081610aa6565b82525050565b5f602082019050610ad95f830184610ab7565b92915050565b5f81519050919050565b5f82825260208201905092915050565b8281835e5f83830152505050565b5f601f19601f8301169050919050565b5f610b2182610adf565b610b2b8185610ae9565b9350610b3b818560208601610af9565b610b4481610b07565b840191505092915050565b5f6020820190508181035f830152610b678184610b17565b905092915050565b5f5ffd5b610b7c81610aa6565b8114610b86575f5ffd5b50565b5f81359050610b9781610b73565b92915050565b5f819050919050565b610baf81610b9d565b8114610bb9575f5ffd5b50565b5f81359050610bca81610ba6565b92915050565b5f5f60408385031215610be657610be5610b6f565b5b5f610bf385828601610b89565b9250506020610c0485828601610bbc565b9150509250929050565b5f8115159050919050565b610c2281610c0e565b82525050565b5f602082019050610c3b5f830184610c19565b92915050565b610c4a81610b9d565b82525050565b5f602082019050610c635f830184610c41565b92915050565b5f5f5f60608486031215610c8057610c7f610b6f565b5b5f610c8d86828701610b89565b9350506020610c9e86828701610b89565b9250506040610caf86828701610bbc565b9150509250925092565b5f60ff82169050919050565b610cce81610cb9565b82525050565b5f602082019050610ce75f830184610cc5565b92915050565b5f60208284031215610d0257610d01610b6f565b5b5f610d0f84828501610b89565b91505092915050565b5f610d2282610a87565b9050919050565b610d3281610d18565b82525050565b5f602082019050610d4b5f830184610d29565b92915050565b5f5f60408385031215610d6757610d66610b6f565b5b5f610d7485828601610b89565b9250506020610d8585828601610b89565b9150509250929050565b7f4e487b71000000000000000000000000000000000000000000000000000000005f52602260045260245ffd5b5f6002820490506001821680610dd357607f821691505b602082108103610de657610de5610d8f565b5b50919050565b5f606082019050610dff5f830186610ab7565b610e0c6020830185610c41565b610e196040830184610c41565b949350505050565b7f4e487b71000000000000000000000000000000000000000000000000000000005f52601160045260245ffd5b5f610e5882610b9d565b9150610e6383610b9d565b9250828201905080821115610e7b57610e7a610e21565b5b9291505056fea264697066735822122000d63e1d4ca4f1541ae926e3bb70df0b28a4966c3556cc186fdc73c8c12a7c7c64736f6c634300081e0033a2646970667358221220a224ecf60f9ec762cefe8fd51e9cd7e6e6c4a23adc9aa1f2daecb598d23bc77564736f6c634300081e0033","linkReferences":{}},"methodIdentifiers":{"TARGET()":"cc1f2afa","TOKEN_LIMIT()":"031bd4c4","buy(address,uint256)":"cce7ec13","create(string,string)":"198e2b8a","deposit(address)":"f340fa01","fee()":"ddca3f43","getCost(uint256)":"5a4dd47d","getTokenSale(uint256)":"1fbc147b","owner()":"8da5cb5b","tokenToSale(address)":"9c0ad5ed","tokens(uint256)":"4f64b2be","totalTokens()":"7e1c0c09","withdraw(uint256)":"2e1a7d4d"},"id":24}