{"abi":[{"type":"constructor","inputs":[{"name":"_fee","type":"uint256","internalType":"uint256"}],"stateMutability":"nonpayable"},{"type":"function","name":"TARGET","inputs":[],"outputs":[{"name":"","type":"uint256","internalType":"uint256"}],"stateMutability":"view"},{"type":"function","name":"TOKEN_LIMIT","inputs":[],"outputs":[{"name":"","type":"uint256","internalType":"uint256"}],"stateMutability":"view"},{"type":"function","name":"buy","inputs":[{"name":"_token","type":"address","internalType":"address"},{"name":"_amount","type":"uint256","internalType":"uint256"}],"outputs":[],"stateMutability":"payable"},{"type":"function","name":"closeSale","inputs":[{"name":"_token","type":"address","internalType":"address"}],"outputs":[],"stateMutability":"nonpayable"},{"type":"function","name":"create","inputs":[{"name":"_name","type":"string","internalType":"string"},{"name":"_symbol","type":"string","internalType":"string"},{"name":"_image","type":"string","internalType":"string"}],"outputs":[],"stateMutability":"payable"},{"type":"function","name":"deposit","inputs":[{"name":"_token","type":"address","internalType":"address"}],"outputs":[],"stateMutability":"nonpayable"},{"type":"function","name":"fee","inputs":[],"outputs":[{"name":"","type":"uint256","internalType":"uint256"}],"stateMutability":"view"},{"type":"function","name":"getCost","inputs":[{"name":"_sold","type":"uint256","internalType":"uint256"}],"outputs":[{"name":"","type":"uint256","internalType":"uint256"}],"stateMutability":"pure"},{"type":"function","name":"getTokenSale","inputs":[{"name":"_index","type":"uint256","internalType":"uint256"}],"outputs":[{"name":"","type":"tuple","internalType":"struct Factory.TokenSale","components":[{"name":"name","type":"string","internalType":"string"},{"name":"token","type":"address","internalType":"address"},{"name":"creator","type":"address","internalType":"address"},{"name":"sold","type":"uint256","internalType":"uint256"},{"name":"raised","type":"uint256","internalType":"uint256"},{"name":"isOpen","type":"bool","internalType":"bool"},{"name":"image","type":"string","internalType":"string"}]}],"stateMutability":"view"},{"type":"function","name":"owner","inputs":[],"outputs":[{"name":"","type":"address","internalType":"address"}],"stateMutability":"view"},{"type":"function","name":"tokenToSale","inputs":[{"name":"","type":"address","internalType":"address"}],"outputs":[{"name":"name","type":"string","internalType":"string"},{"name":"token","type":"address","internalType":"address"},{"name":"creator","type":"address","internalType":"address"},{"name":"sold","type":"uint256","internalType":"uint256"},{"name":"raised","type":"uint256","internalType":"uint256"},{"name":"isOpen","type":"bool","internalType":"bool"},{"name":"image","type":"string","internalType":"string"}],"stateMutability":"view"},{"type":"function","name":"tokens","inputs":[{"name":"","type":"uint256","internalType":"uint256"}],"outputs":[{"name":"","type":"address","internalType":"address"}],"stateMutability":"view"},{"type":"function","name":"totalTokens","inputs":[],"outputs":[{"name":"","type":"uint256","internalType":"uint256"}],"stateMutability":"view"},{"type":"function","name":"withdraw","inputs":[{"name":"_amount","type":"uint256","internalType":"uint256"}],"outputs":[],"stateMutability":"nonpayable"},{"type":"event","name":"Buy","inputs":[{"name":"token","type":"address","indexed":true,"internalType":"address"},{"name":"amount","type":"uint256","indexed":false,"internalType":"uint256"}],"anonymous":false},{"type":"event","name":"Created","inputs":[{"name":"token","type":"address","indexed":true,"internalType":"address"}],"anonymous":false},{"type":"event","name":"SaleClosed","inputs":[{"name":"token","type":"address","indexed":true,"internalType":"address"}],"anonymous":false}],"bytecode":{"object":"0x60a060405234801561000f575f5ffd5b5060405161406b38038061406b833981810160405281019061003191906100b5565b8060808181525050335f5f6101000a81548173ffffffffffffffffffffffffffffffffffffffff021916908373ffffffffffffffffffffffffffffffffffffffff160217905550506100e0565b5f5ffd5b5f819050919050565b61009481610082565b811461009e575f5ffd5b50565b5f815190506100af8161008b565b92915050565b5f602082840312156100ca576100c961007e565b5b5f6100d7848285016100a1565b91505092915050565b608051613f6c6100ff5f395f81816107da01526111cf0152613f6c5ff3fe6080604052600436106100dc575f3560e01c80637e1c0c091161007e578063cc1f2afa11610058578063cc1f2afa146102c0578063cce7ec13146102ea578063ddca3f4314610306578063f340fa0114610330576100dc565b80637e1c0c091461022a5780638da5cb5b146102545780639c0ad5ed1461027e576100dc565b80634f64b2be116100ba5780634f64b2be1461016e5780635a4dd47d146101aa5780635d28560a146101e65780637949137014610202576100dc565b8063031bd4c4146100e05780631fbc147b1461010a5780632e1a7d4d14610146575b5f5ffd5b3480156100eb575f5ffd5b506100f4610358565b60405161010191906116b9565b60405180910390f35b348015610115575f5ffd5b50610130600480360381019061012b919061170d565b610366565b60405161013d91906118b0565b60405180910390f35b348015610151575f5ffd5b5061016c6004803603810190610167919061170d565b6105ef565b005b348015610179575f5ffd5b50610194600480360381019061018f919061170d565b610749565b6040516101a191906118df565b60405180910390f35b3480156101b5575f5ffd5b506101d060048036038101906101cb919061170d565b610784565b6040516101dd91906116b9565b60405180910390f35b61020060048036038101906101fb9190611a24565b6107d8565b005b34801561020d575f5ffd5b5061022860048036038101906102239190611af2565b610acf565b005b348015610235575f5ffd5b5061023e610c59565b60405161024b91906116b9565b60405180910390f35b34801561025f575f5ffd5b50610268610c5f565b60405161027591906118df565b60405180910390f35b348015610289575f5ffd5b506102a4600480360381019061029f9190611af2565b610c83565b6040516102b79796959493929190611b74565b60405180910390f35b3480156102cb575f5ffd5b506102d4610e17565b6040516102e191906116b9565b60405180910390f35b61030460048036038101906102ff9190611bef565b610e23565b005b348015610311575f5ffd5b5061031a6111cd565b60405161032791906116b9565b60405180910390f35b34801561033b575f5ffd5b5061035660048036038101906103519190611af2565b6111f1565b005b6969e10de76676d080000081565b61036e61162e565b60035f6001848154811061038557610384611c2d565b5b905f5260205f20015f9054906101000a900473ffffffffffffffffffffffffffffffffffffffff1673ffffffffffffffffffffffffffffffffffffffff1673ffffffffffffffffffffffffffffffffffffffff1681526020019081526020015f206040518060e00160405290815f8201805461040090611c87565b80601f016020809104026020016040519081016040528092919081815260200182805461042c90611c87565b80156104775780601f1061044e57610100808354040283529160200191610477565b820191905f5260205f20905b81548152906001019060200180831161045a57829003601f168201915b50505050508152602001600182015f9054906101000a900473ffffffffffffffffffffffffffffffffffffffff1673ffffffffffffffffffffffffffffffffffffffff1673ffffffffffffffffffffffffffffffffffffffff168152602001600282015f9054906101000a900473ffffffffffffffffffffffffffffffffffffffff1673ffffffffffffffffffffffffffffffffffffffff1673ffffffffffffffffffffffffffffffffffffffff1681526020016003820154815260200160048201548152602001600582015f9054906101000a900460ff1615151515815260200160068201805461056890611c87565b80601f016020809104026020016040519081016040528092919081815260200182805461059490611c87565b80156105df5780601f106105b6576101008083540402835291602001916105df565b820191905f5260205f20905b8154815290600101906020018083116105c257829003601f168201915b5050505050815250509050919050565b5f5f9054906101000a900473ffffffffffffffffffffffffffffffffffffffff1673ffffffffffffffffffffffffffffffffffffffff163373ffffffffffffffffffffffffffffffffffffffff161461067d576040517f08c379a000000000000000000000000000000000000000000000000000000000815260040161067490611d01565b60405180910390fd5b5f5f5f9054906101000a900473ffffffffffffffffffffffffffffffffffffffff1673ffffffffffffffffffffffffffffffffffffffff16826040516106c290611d4c565b5f6040518083038185875af1925050503d805f81146106fc576040519150601f19603f3d011682016040523d82523d5f602084013e610701565b606091505b5050905080610745576040517f08c379a000000000000000000000000000000000000000000000000000000000815260040161073c90611daa565b60405180910390fd5b5050565b60018181548110610758575f80fd5b905f5260205f20015f915054906101000a900473ffffffffffffffffffffffffffffffffffffffff1681565b5f5f655af3107a400090505f655af3107a400090505f69021e19e0c9bab240000090505f81866107b49190611e22565b836107bf9190611e52565b846107ca9190611e93565b905080945050505050919050565b7f000000000000000000000000000000000000000000000000000000000000000034101561083b576040517f08c379a000000000000000000000000000000000000000000000000000000000815260040161083290611f10565b60405180910390fd5b5f33848469d3c21bcecceda100000060405161085690611694565b6108639493929190611f70565b604051809103905ff08015801561087c573d5f5f3e3d5ffd5b509050600181908060018154018082558091505060019003905f5260205f20015f9091909190916101000a81548173ffffffffffffffffffffffffffffffffffffffff021916908373ffffffffffffffffffffffffffffffffffffffff16021790555060025f8154809291906108f190611fc1565b91905055505f6040518060e001604052808681526020018373ffffffffffffffffffffffffffffffffffffffff1681526020013373ffffffffffffffffffffffffffffffffffffffff1681526020015f81526020015f81526020016001151581526020018481525090508060035f8473ffffffffffffffffffffffffffffffffffffffff1673ffffffffffffffffffffffffffffffffffffffff1681526020019081526020015f205f820151815f0190816109ac919061219f565b506020820151816001015f6101000a81548173ffffffffffffffffffffffffffffffffffffffff021916908373ffffffffffffffffffffffffffffffffffffffff1602179055506040820151816002015f6101000a81548173ffffffffffffffffffffffffffffffffffffffff021916908373ffffffffffffffffffffffffffffffffffffffff160217905550606082015181600301556080820151816004015560a0820151816005015f6101000a81548160ff02191690831515021790555060c0820151816006019081610a81919061219f565b509050508173ffffffffffffffffffffffffffffffffffffffff167f1449abf21e49fd025f33495e77f7b1461caefdd3d4bb646424a3f445c4576a5b60405160405180910390a25050505050565b5f60035f8373ffffffffffffffffffffffffffffffffffffffff1673ffffffffffffffffffffffffffffffffffffffff1681526020019081526020015f209050806002015f9054906101000a900473ffffffffffffffffffffffffffffffffffffffff1673ffffffffffffffffffffffffffffffffffffffff163373ffffffffffffffffffffffffffffffffffffffff1614610ba0576040517f08c379a0000000000000000000000000000000000000000000000000000000008152600401610b97906122b8565b60405180910390fd5b60011515816005015f9054906101000a900460ff16151514610bf7576040517f08c379a0000000000000000000000000000000000000000000000000000000008152600401610bee90612320565b60405180910390fd5b5f816005015f6101000a81548160ff0219169083151502179055508173ffffffffffffffffffffffffffffffffffffffff167f5caab17bad67c53e59f2f0cbddf48b5cbe8616c7facf4543348ce7ae4fbeaa9b60405160405180910390a25050565b60025481565b5f5f9054906101000a900473ffffffffffffffffffffffffffffffffffffffff1681565b6003602052805f5260405f205f91509050805f018054610ca290611c87565b80601f0160208091040260200160405190810160405280929190818152602001828054610cce90611c87565b8015610d195780601f10610cf057610100808354040283529160200191610d19565b820191905f5260205f20905b815481529060010190602001808311610cfc57829003601f168201915b505050505090806001015f9054906101000a900473ffffffffffffffffffffffffffffffffffffffff1690806002015f9054906101000a900473ffffffffffffffffffffffffffffffffffffffff1690806003015490806004015490806005015f9054906101000a900460ff1690806006018054610d9690611c87565b80601f0160208091040260200160405190810160405280929190818152602001828054610dc290611c87565b8015610e0d5780601f10610de457610100808354040283529160200191610e0d565b820191905f5260205f20905b815481529060010190602001808311610df057829003601f168201915b5050505050905087565b6729a2241af62c000081565b5f60035f8473ffffffffffffffffffffffffffffffffffffffff1673ffffffffffffffffffffffffffffffffffffffff1681526020019081526020015f20905060011515816005015f9054906101000a900460ff16151514610eba576040517f08c379a0000000000000000000000000000000000000000000000000000000008152600401610eb190612388565b60405180910390fd5b5f8373ffffffffffffffffffffffffffffffffffffffff166370a08231336040518263ffffffff1660e01b8152600401610ef491906118df565b602060405180830381865afa158015610f0f573d5f5f3e3d5ffd5b505050506040513d601f19601f82011682018060405250810190610f3391906123ba565b14610f73576040517f08c379a0000000000000000000000000000000000000000000000000000000008152600401610f6a90612455565b60405180910390fd5b670de0b6b3a7640000821015610fbe576040517f08c379a0000000000000000000000000000000000000000000000000000000008152600401610fb5906124bd565b60405180910390fd5b69021e19e0c9bab240000082111561100b576040517f08c379a000000000000000000000000000000000000000000000000000000000815260040161100290612525565b60405180910390fd5b5f6110198260030154610784565b90505f670de0b6b3a7640000846110309190611e22565b8261103b9190611e52565b905080341015611080576040517f08c379a0000000000000000000000000000000000000000000000000000000008152600401611077906125b3565b60405180910390fd5b8383600301546110909190611e93565b836003018190555080836004015f8282546110ab9190611e93565b925050819055506969e10de76676d080000083600301541015806110db57506729a2241af62c0000836004015410155b156110fc575f836005015f6101000a81548160ff0219169083151502179055505b8473ffffffffffffffffffffffffffffffffffffffff1663a9059cbb33866040518363ffffffff1660e01b81526004016111379291906125d1565b6020604051808303815f875af1158015611153573d5f5f3e3d5ffd5b505050506040513d601f19601f820116820180604052508101906111779190612622565b508473ffffffffffffffffffffffffffffffffffffffff167fe3d4187f6ca4248660cc0ac8b8056515bac4a8132be2eca31d6d0cc170722a7e856040516111be91906116b9565b60405180910390a25050505050565b7f000000000000000000000000000000000000000000000000000000000000000081565b5f8190505f60035f8473ffffffffffffffffffffffffffffffffffffffff1673ffffffffffffffffffffffffffffffffffffffff1681526020019081526020015f206040518060e00160405290815f8201805461124d90611c87565b80601f016020809104026020016040519081016040528092919081815260200182805461127990611c87565b80156112c45780601f1061129b576101008083540402835291602001916112c4565b820191905f5260205f20905b8154815290600101906020018083116112a757829003601f168201915b50505050508152602001600182015f9054906101000a900473ffffffffffffffffffffffffffffffffffffffff1673ffffffffffffffffffffffffffffffffffffffff1673ffffffffffffffffffffffffffffffffffffffff168152602001600282015f9054906101000a900473ffffffffffffffffffffffffffffffffffffffff1673ffffffffffffffffffffffffffffffffffffffff1673ffffffffffffffffffffffffffffffffffffffff1681526020016003820154815260200160048201548152602001600582015f9054906101000a900460ff161515151581526020016006820180546113b590611c87565b80601f01602080910402602001604051908101604052809291908181526020018280546113e190611c87565b801561142c5780601f106114035761010080835404028352916020019161142c565b820191905f5260205f20905b81548152906001019060200180831161140f57829003601f168201915b50505050508152505090505f15158160a00151151514611481576040517f08c379a000000000000000000000000000000000000000000000000000000000815260040161147890612697565b60405180910390fd5b8173ffffffffffffffffffffffffffffffffffffffff1663a9059cbb82604001518473ffffffffffffffffffffffffffffffffffffffff166370a08231306040518263ffffffff1660e01b81526004016114db91906118df565b602060405180830381865afa1580156114f6573d5f5f3e3d5ffd5b505050506040513d601f19601f8201168201806040525081019061151a91906123ba565b6040518363ffffffff1660e01b81526004016115379291906125d1565b6020604051808303815f875af1158015611553573d5f5f3e3d5ffd5b505050506040513d601f19601f820116820180604052508101906115779190612622565b505f816040015173ffffffffffffffffffffffffffffffffffffffff1682608001516040516115a590611d4c565b5f6040518083038185875af1925050503d805f81146115df576040519150601f19603f3d011682016040523d82523d5f602084013e6115e4565b606091505b5050905080611628576040517f08c379a000000000000000000000000000000000000000000000000000000000815260040161161f90611daa565b60405180910390fd5b50505050565b6040518060e00160405280606081526020015f73ffffffffffffffffffffffffffffffffffffffff1681526020015f73ffffffffffffffffffffffffffffffffffffffff1681526020015f81526020015f81526020015f15158152602001606081525090565b611881806126b683390190565b5f819050919050565b6116b3816116a1565b82525050565b5f6020820190506116cc5f8301846116aa565b92915050565b5f604051905090565b5f5ffd5b5f5ffd5b6116ec816116a1565b81146116f6575f5ffd5b50565b5f81359050611707816116e3565b92915050565b5f60208284031215611722576117216116db565b5b5f61172f848285016116f9565b91505092915050565b5f81519050919050565b5f82825260208201905092915050565b8281835e5f83830152505050565b5f601f19601f8301169050919050565b5f61177a82611738565b6117848185611742565b9350611794818560208601611752565b61179d81611760565b840191505092915050565b5f73ffffffffffffffffffffffffffffffffffffffff82169050919050565b5f6117d1826117a8565b9050919050565b6117e1816117c7565b82525050565b6117f0816116a1565b82525050565b5f8115159050919050565b61180a816117f6565b82525050565b5f60e083015f8301518482035f86015261182a8282611770565b915050602083015161183f60208601826117d8565b50604083015161185260408601826117d8565b50606083015161186560608601826117e7565b50608083015161187860808601826117e7565b5060a083015161188b60a0860182611801565b5060c083015184820360c08601526118a38282611770565b9150508091505092915050565b5f6020820190508181035f8301526118c88184611810565b905092915050565b6118d9816117c7565b82525050565b5f6020820190506118f25f8301846118d0565b92915050565b5f5ffd5b5f5ffd5b7f4e487b71000000000000000000000000000000000000000000000000000000005f52604160045260245ffd5b61193682611760565b810181811067ffffffffffffffff8211171561195557611954611900565b5b80604052505050565b5f6119676116d2565b9050611973828261192d565b919050565b5f67ffffffffffffffff82111561199257611991611900565b5b61199b82611760565b9050602081019050919050565b828183375f83830152505050565b5f6119c86119c384611978565b61195e565b9050828152602081018484840111156119e4576119e36118fc565b5b6119ef8482856119a8565b509392505050565b5f82601f830112611a0b57611a0a6118f8565b5b8135611a1b8482602086016119b6565b91505092915050565b5f5f5f60608486031215611a3b57611a3a6116db565b5b5f84013567ffffffffffffffff811115611a5857611a576116df565b5b611a64868287016119f7565b935050602084013567ffffffffffffffff811115611a8557611a846116df565b5b611a91868287016119f7565b925050604084013567ffffffffffffffff811115611ab257611ab16116df565b5b611abe868287016119f7565b9150509250925092565b611ad1816117c7565b8114611adb575f5ffd5b50565b5f81359050611aec81611ac8565b92915050565b5f60208284031215611b0757611b066116db565b5b5f611b1484828501611ade565b91505092915050565b5f82825260208201905092915050565b5f611b3782611738565b611b418185611b1d565b9350611b51818560208601611752565b611b5a81611760565b840191505092915050565b611b6e816117f6565b82525050565b5f60e0820190508181035f830152611b8c818a611b2d565b9050611b9b60208301896118d0565b611ba860408301886118d0565b611bb560608301876116aa565b611bc260808301866116aa565b611bcf60a0830185611b65565b81810360c0830152611be18184611b2d565b905098975050505050505050565b5f5f60408385031215611c0557611c046116db565b5b5f611c1285828601611ade565b9250506020611c23858286016116f9565b9150509250929050565b7f4e487b71000000000000000000000000000000000000000000000000000000005f52603260045260245ffd5b7f4e487b71000000000000000000000000000000000000000000000000000000005f52602260045260245ffd5b5f6002820490506001821680611c9e57607f821691505b602082108103611cb157611cb0611c5a565b5b50919050565b7f466163746f7279203a206e6f74206f776e6572000000000000000000000000005f82015250565b5f611ceb601383611b1d565b9150611cf682611cb7565b602082019050919050565b5f6020820190508181035f830152611d1881611cdf565b9050919050565b5f81905092915050565b50565b5f611d375f83611d1f565b9150611d4282611d29565b5f82019050919050565b5f611d5682611d2c565b9150819050919050565b7f666163746f7279203a20657468207472616e73666572206661696c65640000005f82015250565b5f611d94601d83611b1d565b9150611d9f82611d60565b602082019050919050565b5f6020820190508181035f830152611dc181611d88565b9050919050565b7f4e487b71000000000000000000000000000000000000000000000000000000005f52601260045260245ffd5b7f4e487b71000000000000000000000000000000000000000000000000000000005f52601160045260245ffd5b5f611e2c826116a1565b9150611e37836116a1565b925082611e4757611e46611dc8565b5b828204905092915050565b5f611e5c826116a1565b9150611e67836116a1565b9250828202611e75816116a1565b91508282048414831517611e8c57611e8b611df5565b5b5092915050565b5f611e9d826116a1565b9150611ea8836116a1565b9250828201905080821115611ec057611ebf611df5565b5b92915050565b7f666163746f72793a2043726561746f7220666565206e6f74206d6574000000005f82015250565b5f611efa601c83611b1d565b9150611f0582611ec6565b602082019050919050565b5f6020820190508181035f830152611f2781611eee565b9050919050565b5f819050919050565b5f819050919050565b5f611f5a611f55611f5084611f2e565b611f37565b6116a1565b9050919050565b611f6a81611f40565b82525050565b5f608082019050611f835f8301876118d0565b8181036020830152611f958186611b2d565b90508181036040830152611fa98185611b2d565b9050611fb86060830184611f61565b95945050505050565b5f611fcb826116a1565b91507fffffffffffffffffffffffffffffffffffffffffffffffffffffffffffffffff8203611ffd57611ffc611df5565b5b600182019050919050565b5f819050815f5260205f209050919050565b5f6020601f8301049050919050565b5f82821b905092915050565b5f600883026120647fffffffffffffffffffffffffffffffffffffffffffffffffffffffffffffffff82612029565b61206e8683612029565b95508019841693508086168417925050509392505050565b5f6120a061209b612096846116a1565b611f37565b6116a1565b9050919050565b5f819050919050565b6120b983612086565b6120cd6120c5826120a7565b848454612035565b825550505050565b5f5f905090565b6120e46120d5565b6120ef8184846120b0565b505050565b5b81811015612112576121075f826120dc565b6001810190506120f5565b5050565b601f8211156121575761212881612008565b6121318461201a565b81016020851015612140578190505b61215461214c8561201a565b8301826120f4565b50505b505050565b5f82821c905092915050565b5f6121775f198460080261215c565b1980831691505092915050565b5f61218f8383612168565b9150826002028217905092915050565b6121a882611738565b67ffffffffffffffff8111156121c1576121c0611900565b5b6121cb8254611c87565b6121d6828285612116565b5f60209050601f831160018114612207575f84156121f5578287015190505b6121ff8582612184565b865550612266565b601f19841661221586612008565b5f5b8281101561223c57848901518255600182019150602085019450602081019050612217565b868310156122595784890151612255601f891682612168565b8355505b6001600288020188555050505b505050505050565b7f466163746f7279203a206e6f742063726561746f7200000000000000000000005f82015250565b5f6122a2601583611b1d565b91506122ad8261226e565b602082019050919050565b5f6020820190508181035f8301526122cf81612296565b9050919050565b7f466163746f7279203a20616c726561647920636c6f73656400000000000000005f82015250565b5f61230a601883611b1d565b9150612315826122d6565b602082019050919050565b5f6020820190508181035f830152612337816122fe565b9050919050565b7f466163746f7279203a20627579696e6720697320636c6f7365640000000000005f82015250565b5f612372601a83611b1d565b915061237d8261233e565b602082019050919050565b5f6020820190508181035f83015261239f81612366565b9050919050565b5f815190506123b4816116e3565b92915050565b5f602082840312156123cf576123ce6116db565b5b5f6123dc848285016123a6565b91505092915050565b7f466163746f7279203a20596f7520616c7265616479206f776e207468697320745f8201527f6f6b656e00000000000000000000000000000000000000000000000000000000602082015250565b5f61243f602483611b1d565b915061244a826123e5565b604082019050919050565b5f6020820190508181035f83015261246c81612433565b9050919050565b7f466163746f7279203a20416d6f756e7420746f6f206c6f7700000000000000005f82015250565b5f6124a7601883611b1d565b91506124b282612473565b602082019050919050565b5f6020820190508181035f8301526124d48161249b565b9050919050565b7f466163746f7279203a20616d6f756e74206578636565640000000000000000005f82015250565b5f61250f601783611b1d565b915061251a826124db565b602082019050919050565b5f6020820190508181035f83015261253c81612503565b9050919050565b7f466163746f7279203a20496e73756666696369656e7420616d6f756e74206f665f8201527f2065746800000000000000000000000000000000000000000000000000000000602082015250565b5f61259d602483611b1d565b91506125a882612543565b604082019050919050565b5f6020820190508181035f8301526125ca81612591565b9050919050565b5f6040820190506125e45f8301856118d0565b6125f160208301846116aa565b9392505050565b612601816117f6565b811461260b575f5ffd5b50565b5f8151905061261c816125f8565b92915050565b5f60208284031215612637576126366116db565b5b5f6126448482850161260e565b91505092915050565b7f466163746f7279203a20546172676574206e6f742072656163686564000000005f82015250565b5f612681601c83611b1d565b915061268c8261264d565b602082019050919050565b5f6020820190508181035f8301526126ae81612675565b905091905056fe608060405234801561000f575f5ffd5b5060405161188138038061188183398181016040528101906100319190610566565b828281600390816100429190610809565b5080600490816100529190610809565b5050503360055f6101000a81548173ffffffffffffffffffffffffffffffffffffffff021916908373ffffffffffffffffffffffffffffffffffffffff1602179055508360065f6101000a81548173ffffffffffffffffffffffffffffffffffffffff021916908373ffffffffffffffffffffffffffffffffffffffff1602179055506100e533826100ee60201b60201c565b505050506109bd565b5f73ffffffffffffffffffffffffffffffffffffffff168273ffffffffffffffffffffffffffffffffffffffff160361015e575f6040517fec442f0500000000000000000000000000000000000000000000000000000000815260040161015591906108e7565b60405180910390fd5b61016f5f838361017360201b60201c565b5050565b5f73ffffffffffffffffffffffffffffffffffffffff168373ffffffffffffffffffffffffffffffffffffffff16036101c3578060025f8282546101b7919061092d565b92505081905550610291565b5f5f5f8573ffffffffffffffffffffffffffffffffffffffff1673ffffffffffffffffffffffffffffffffffffffff1681526020019081526020015f205490508181101561024c578381836040517fe450d38c0000000000000000000000000000000000000000000000000000000081526004016102439392919061096f565b60405180910390fd5b8181035f5f8673ffffffffffffffffffffffffffffffffffffffff1673ffffffffffffffffffffffffffffffffffffffff1681526020019081526020015f2081905550505b5f73ffffffffffffffffffffffffffffffffffffffff168273ffffffffffffffffffffffffffffffffffffffff16036102d8578060025f8282540392505081905550610322565b805f5f8473ffffffffffffffffffffffffffffffffffffffff1673ffffffffffffffffffffffffffffffffffffffff1681526020019081526020015f205f82825401925050819055505b8173ffffffffffffffffffffffffffffffffffffffff168373ffffffffffffffffffffffffffffffffffffffff167fddf252ad1be2c89b69c2b068fc378daa952ba7f163c4a11628f55a4df523b3ef8360405161037f91906109a4565b60405180910390a3505050565b5f604051905090565b5f5ffd5b5f5ffd5b5f73ffffffffffffffffffffffffffffffffffffffff82169050919050565b5f6103c68261039d565b9050919050565b6103d6816103bc565b81146103e0575f5ffd5b50565b5f815190506103f1816103cd565b92915050565b5f5ffd5b5f5ffd5b5f601f19601f8301169050919050565b7f4e487b71000000000000000000000000000000000000000000000000000000005f52604160045260245ffd5b610445826103ff565b810181811067ffffffffffffffff821117156104645761046361040f565b5b80604052505050565b5f61047661038c565b9050610482828261043c565b919050565b5f67ffffffffffffffff8211156104a1576104a061040f565b5b6104aa826103ff565b9050602081019050919050565b8281835e5f83830152505050565b5f6104d76104d284610487565b61046d565b9050828152602081018484840111156104f3576104f26103fb565b5b6104fe8482856104b7565b509392505050565b5f82601f83011261051a576105196103f7565b5b815161052a8482602086016104c5565b91505092915050565b5f819050919050565b61054581610533565b811461054f575f5ffd5b50565b5f815190506105608161053c565b92915050565b5f5f5f5f6080858703121561057e5761057d610395565b5b5f61058b878288016103e3565b945050602085015167ffffffffffffffff8111156105ac576105ab610399565b5b6105b887828801610506565b935050604085015167ffffffffffffffff8111156105d9576105d8610399565b5b6105e587828801610506565b92505060606105f687828801610552565b91505092959194509250565b5f81519050919050565b7f4e487b71000000000000000000000000000000000000000000000000000000005f52602260045260245ffd5b5f600282049050600182168061065057607f821691505b6020821081036106635761066261060c565b5b50919050565b5f819050815f5260205f209050919050565b5f6020601f8301049050919050565b5f82821b905092915050565b5f600883026106c57fffffffffffffffffffffffffffffffffffffffffffffffffffffffffffffffff8261068a565b6106cf868361068a565b95508019841693508086168417925050509392505050565b5f819050919050565b5f61070a61070561070084610533565b6106e7565b610533565b9050919050565b5f819050919050565b610723836106f0565b61073761072f82610711565b848454610696565b825550505050565b5f5f905090565b61074e61073f565b61075981848461071a565b505050565b5b8181101561077c576107715f82610746565b60018101905061075f565b5050565b601f8211156107c15761079281610669565b61079b8461067b565b810160208510156107aa578190505b6107be6107b68561067b565b83018261075e565b50505b505050565b5f82821c905092915050565b5f6107e15f19846008026107c6565b1980831691505092915050565b5f6107f983836107d2565b9150826002028217905092915050565b61081282610602565b67ffffffffffffffff81111561082b5761082a61040f565b5b6108358254610639565b610840828285610780565b5f60209050601f831160018114610871575f841561085f578287015190505b61086985826107ee565b8655506108d0565b601f19841661087f86610669565b5f5b828110156108a657848901518255600182019150602085019450602081019050610881565b868310156108c357848901516108bf601f8916826107d2565b8355505b6001600288020188555050505b505050505050565b6108e1816103bc565b82525050565b5f6020820190506108fa5f8301846108d8565b92915050565b7f4e487b71000000000000000000000000000000000000000000000000000000005f52601160045260245ffd5b5f61093782610533565b915061094283610533565b925082820190508082111561095a57610959610900565b5b92915050565b61096981610533565b82525050565b5f6060820190506109825f8301866108d8565b61098f6020830185610960565b61099c6040830184610960565b949350505050565b5f6020820190506109b75f830184610960565b92915050565b610eb7806109ca5f395ff3fe608060405234801561000f575f5ffd5b50600436106100a7575f3560e01c8063313ce5671161006f578063313ce5671461016557806370a08231146101835780638da5cb5b146101b357806395d89b41146101d1578063a9059cbb146101ef578063dd62ed3e1461021f576100a7565b806302d05d3f146100ab57806306fdde03146100c9578063095ea7b3146100e757806318160ddd1461011757806323b872dd14610135575b5f5ffd5b6100b361024f565b6040516100c09190610ac6565b60405180910390f35b6100d1610274565b6040516100de9190610b4f565b60405180910390f35b61010160048036038101906100fc9190610bd0565b610304565b60405161010e9190610c28565b60405180910390f35b61011f610326565b60405161012c9190610c50565b60405180910390f35b61014f600480360381019061014a9190610c69565b61032f565b60405161015c9190610c28565b60405180910390f35b61016d61035d565b60405161017a9190610cd4565b60405180910390f35b61019d60048036038101906101989190610ced565b610365565b6040516101aa9190610c50565b60405180910390f35b6101bb6103aa565b6040516101c89190610d38565b60405180910390f35b6101d96103cf565b6040516101e69190610b4f565b60405180910390f35b61020960048036038101906102049190610bd0565b61045f565b6040516102169190610c28565b60405180910390f35b61023960048036038101906102349190610d51565b610481565b6040516102469190610c50565b60405180910390f35b60065f9054906101000a900473ffffffffffffffffffffffffffffffffffffffff1681565b60606003805461028390610dbc565b80601f01602080910402602001604051908101604052809291908181526020018280546102af90610dbc565b80156102fa5780601f106102d1576101008083540402835291602001916102fa565b820191905f5260205f20905b8154815290600101906020018083116102dd57829003601f168201915b5050505050905090565b5f5f61030e610503565b905061031b81858561050a565b600191505092915050565b5f600254905090565b5f5f610339610503565b905061034685828561051c565b6103518585856105af565b60019150509392505050565b5f6012905090565b5f5f5f8373ffffffffffffffffffffffffffffffffffffffff1673ffffffffffffffffffffffffffffffffffffffff1681526020019081526020015f20549050919050565b60055f9054906101000a900473ffffffffffffffffffffffffffffffffffffffff1681565b6060600480546103de90610dbc565b80601f016020809104026020016040519081016040528092919081815260200182805461040a90610dbc565b80156104555780601f1061042c57610100808354040283529160200191610455565b820191905f5260205f20905b81548152906001019060200180831161043857829003601f168201915b5050505050905090565b5f5f610469610503565b90506104768185856105af565b600191505092915050565b5f60015f8473ffffffffffffffffffffffffffffffffffffffff1673ffffffffffffffffffffffffffffffffffffffff1681526020019081526020015f205f8373ffffffffffffffffffffffffffffffffffffffff1673ffffffffffffffffffffffffffffffffffffffff1681526020019081526020015f2054905092915050565b5f33905090565b610517838383600161069f565b505050565b5f6105278484610481565b90507fffffffffffffffffffffffffffffffffffffffffffffffffffffffffffffffff8110156105a9578181101561059a578281836040517ffb8f41b200000000000000000000000000000000000000000000000000000000815260040161059193929190610dec565b60405180910390fd5b6105a884848484035f61069f565b5b50505050565b5f73ffffffffffffffffffffffffffffffffffffffff168373ffffffffffffffffffffffffffffffffffffffff160361061f575f6040517f96c6fd1e0000000000000000000000000000000000000000000000000000000081526004016106169190610ac6565b60405180910390fd5b5f73ffffffffffffffffffffffffffffffffffffffff168273ffffffffffffffffffffffffffffffffffffffff160361068f575f6040517fec442f050000000000000000000000000000000000000000000000000000000081526004016106869190610ac6565b60405180910390fd5b61069a83838361086e565b505050565b5f73ffffffffffffffffffffffffffffffffffffffff168473ffffffffffffffffffffffffffffffffffffffff160361070f575f6040517fe602df050000000000000000000000000000000000000000000000000000000081526004016107069190610ac6565b60405180910390fd5b5f73ffffffffffffffffffffffffffffffffffffffff168373ffffffffffffffffffffffffffffffffffffffff160361077f575f6040517f94280d620000000000000000000000000000000000000000000000000000000081526004016107769190610ac6565b60405180910390fd5b8160015f8673ffffffffffffffffffffffffffffffffffffffff1673ffffffffffffffffffffffffffffffffffffffff1681526020019081526020015f205f8573ffffffffffffffffffffffffffffffffffffffff1673ffffffffffffffffffffffffffffffffffffffff1681526020019081526020015f20819055508015610868578273ffffffffffffffffffffffffffffffffffffffff168473ffffffffffffffffffffffffffffffffffffffff167f8c5be1e5ebec7d5bd14f71427d1e84f3dd0314c0f7b2291e5b200ac8c7c3b9258460405161085f9190610c50565b60405180910390a35b50505050565b5f73ffffffffffffffffffffffffffffffffffffffff168373ffffffffffffffffffffffffffffffffffffffff16036108be578060025f8282546108b29190610e4e565b9250508190555061098c565b5f5f5f8573ffffffffffffffffffffffffffffffffffffffff1673ffffffffffffffffffffffffffffffffffffffff1681526020019081526020015f2054905081811015610947578381836040517fe450d38c00000000000000000000000000000000000000000000000000000000815260040161093e93929190610dec565b60405180910390fd5b8181035f5f8673ffffffffffffffffffffffffffffffffffffffff1673ffffffffffffffffffffffffffffffffffffffff1681526020019081526020015f2081905550505b5f73ffffffffffffffffffffffffffffffffffffffff168273ffffffffffffffffffffffffffffffffffffffff16036109d3578060025f8282540392505081905550610a1d565b805f5f8473ffffffffffffffffffffffffffffffffffffffff1673ffffffffffffffffffffffffffffffffffffffff1681526020019081526020015f205f82825401925050819055505b8173ffffffffffffffffffffffffffffffffffffffff168373ffffffffffffffffffffffffffffffffffffffff167fddf252ad1be2c89b69c2b068fc378daa952ba7f163c4a11628f55a4df523b3ef83604051610a7a9190610c50565b60405180910390a3505050565b5f73ffffffffffffffffffffffffffffffffffffffff82169050919050565b5f610ab082610a87565b9050919050565b610ac081610aa6565b82525050565b5f602082019050610ad95f830184610ab7565b92915050565b5f81519050919050565b5f82825260208201905092915050565b8281835e5f83830152505050565b5f601f19601f8301169050919050565b5f610b2182610adf565b610b2b8185610ae9565b9350610b3b818560208601610af9565b610b4481610b07565b840191505092915050565b5f6020820190508181035f830152610b678184610b17565b905092915050565b5f5ffd5b610b7c81610aa6565b8114610b86575f5ffd5b50565b5f81359050610b9781610b73565b92915050565b5f819050919050565b610baf81610b9d565b8114610bb9575f5ffd5b50565b5f81359050610bca81610ba6565b92915050565b5f5f60408385031215610be657610be5610b6f565b5b5f610bf385828601610b89565b9250506020610c0485828601610bbc565b9150509250929050565b5f8115159050919050565b610c2281610c0e565b82525050565b5f602082019050610c3b5f830184610c19565b92915050565b610c4a81610b9d565b82525050565b5f602082019050610c635f830184610c41565b92915050565b5f5f5f60608486031215610c8057610c7f610b6f565b5b5f610c8d86828701610b89565b9350506020610c9e86828701610b89565b9250506040610caf86828701610bbc565b9150509250925092565b5f60ff82169050919050565b610cce81610cb9565b82525050565b5f602082019050610ce75f830184610cc5565b92915050565b5f60208284031215610d0257610d01610b6f565b5b5f610d0f84828501610b89565b91505092915050565b5f610d2282610a87565b9050919050565b610d3281610d18565b82525050565b5f602082019050610d4b5f830184610d29565b92915050565b5f5f60408385031215610d6757610d66610b6f565b5b5f610d7485828601610b89565b9250506020610d8585828601610b89565b9150509250929050565b7f4e487b71000000000000000000000000000000000000000000000000000000005f52602260045260245ffd5b5f6002820490506001821680610dd357607f821691505b602082108103610de657610de5610d8f565b5b50919050565b5f606082019050610dff5f830186610ab7565b610e0c6020830185610c41565b610e196040830184610c41565b949350505050565b7f4e487b71000000000000000000000000000000000000000000000000000000005f52601160045260245ffd5b5f610e5882610b9d565b9150610e6383610b9d565b9250828201905080821115610e7b57610e7a610e21565b5b9291505056fea264697066735822122000d63e1d4ca4f1541ae926e3bb70df0b28a4966c3556cc186fdc73c8c12a7c7c64736f6c634300081e0033a26469706673582212202e71bd73aed198ff98c3b55aa23ee473ea7b92479e1f2383b39c9a8c5177053664736f6c634300081e0033","linkReferences":{}},"methodIdentifiers":{"TARGET()":"cc1f2afa","TOKEN_LIMIT()":"031bd4c4","buy(address,uint256)":"cce7ec13","closeSale(address)":"79491370","create(string,string,string)":"5d28560a","deposit(address)":"f340fa01","fee()":"ddca3f43","getCost(uint256)":"5a4dd47d","getTokenSale(uint256)":"1fbc147b","owner()":"8da5cb5b","tokenToSale(address)":"9c0ad5ed","tokens(uint256)":"4f64b2be","totalTokens()":"7e1c0c09","withdraw(uint256)":"2e1a7d4d"},"id":21}